{
  "contractName": "ProductAuth",
  "abi": [
    {
      "inputs": [],
      "stateMutability": "nonpayable",
      "type": "constructor"
    },
    {
      "anonymous": false,
      "inputs": [
        {
          "indexed": false,
          "internalType": "uint256",
          "name": "productId",
          "type": "uint256"
        },
        {
          "indexed": false,
          "internalType": "address",
          "name": "seller",
          "type": "address"
        },
        {
          "indexed": false,
          "internalType": "uint256",
          "name": "price",
          "type": "uint256"
        },
        {
          "indexed": false,
          "internalType": "string",
          "name": "imageHash",
          "type": "string"
        }
      ],
      "name": "ProductCreated",
      "type": "event"
    },
    {
      "anonymous": false,
      "inputs": [
        {
          "indexed": false,
          "internalType": "uint256",
          "name": "productId",
          "type": "uint256"
        },
        {
          "indexed": false,
          "internalType": "address",
          "name": "buyer",
          "type": "address"
        },
        {
          "indexed": false,
          "internalType": "address",
          "name": "seller",
          "type": "address"
        },
        {
          "indexed": false,
          "internalType": "uint256",
          "name": "price",
          "type": "uint256"
        },
        {
          "indexed": false,
          "internalType": "string",
          "name": "imageHash",
          "type": "string"
        }
      ],
      "name": "ProductPurchased",
      "type": "event"
    },
    {
      "anonymous": false,
      "inputs": [
        {
          "indexed": false,
          "internalType": "uint256",
          "name": "productId",
          "type": "uint256"
        },
        {
          "indexed": false,
          "internalType": "bool",
          "name": "isReal",
          "type": "bool"
        }
      ],
      "name": "ProductVerified",
      "type": "event"
    },
    {
      "stateMutability": "payable",
      "type": "fallback",
      "payable": true
    },
    {
      "inputs": [],
      "name": "owner",
      "outputs": [
        {
          "internalType": "address",
          "name": "",
          "type": "address"
        }
      ],
      "stateMutability": "view",
      "type": "function",
      "constant": true
    },
    {
      "inputs": [
        {
          "internalType": "uint256",
          "name": "",
          "type": "uint256"
        }
      ],
      "name": "products",
      "outputs": [
        {
          "internalType": "uint256",
          "name": "productId",
          "type": "uint256"
        },
        {
          "internalType": "address payable",
          "name": "seller",
          "type": "address"
        },
        {
          "internalType": "address",
          "name": "buyer",
          "type": "address"
        },
        {
          "internalType": "bool",
          "name": "isVerified",
          "type": "bool"
        },
        {
          "internalType": "uint256",
          "name": "price",
          "type": "uint256"
        },
        {
          "internalType": "string",
          "name": "imageHash",
          "type": "string"
        }
      ],
      "stateMutability": "view",
      "type": "function",
      "constant": true
    },
    {
      "stateMutability": "payable",
      "type": "receive",
      "payable": true
    },
    {
      "inputs": [
        {
          "internalType": "uint256",
          "name": "_price",
          "type": "uint256"
        },
        {
          "internalType": "string",
          "name": "_imageHash",
          "type": "string"
        }
      ],
      "name": "setProduct",
      "outputs": [
        {
          "internalType": "uint256",
          "name": "",
          "type": "uint256"
        }
      ],
      "stateMutability": "nonpayable",
      "type": "function"
    },
    {
      "inputs": [
        {
          "internalType": "uint256",
          "name": "_productId",
          "type": "uint256"
        }
      ],
      "name": "buyProduct",
      "outputs": [],
      "stateMutability": "payable",
      "type": "function",
      "payable": true
    },
    {
      "inputs": [
        {
          "internalType": "uint256",
          "name": "_productId",
          "type": "uint256"
        },
        {
          "internalType": "string",
          "name": "_imageHash",
          "type": "string"
        }
      ],
      "name": "verifyProduct",
      "outputs": [],
      "stateMutability": "nonpayable",
      "type": "function"
    },
    {
      "inputs": [
        {
          "internalType": "uint256",
          "name": "_productId",
          "type": "uint256"
        }
      ],
      "name": "realProduct",
      "outputs": [],
      "stateMutability": "nonpayable",
      "type": "function"
    },
    {
      "inputs": [
        {
          "internalType": "uint256",
          "name": "_productId",
          "type": "uint256"
        }
      ],
      "name": "fakeProduct",
      "outputs": [],
      "stateMutability": "nonpayable",
      "type": "function"
    },
    {
      "inputs": [
        {
          "internalType": "uint256",
          "name": "_productId",
          "type": "uint256"
        }
      ],
      "name": "getProduct",
      "outputs": [
        {
          "internalType": "uint256",
          "name": "",
          "type": "uint256"
        },
        {
          "internalType": "address",
          "name": "",
          "type": "address"
        },
        {
          "internalType": "address",
          "name": "",
          "type": "address"
        },
        {
          "internalType": "bool",
          "name": "",
          "type": "bool"
        },
        {
          "internalType": "uint256",
          "name": "",
          "type": "uint256"
        },
        {
          "internalType": "string",
          "name": "",
          "type": "string"
        }
      ],
      "stateMutability": "view",
      "type": "function",
      "constant": true
    }
  ],
  "bytecode": "0x608060405234801561001057600080fd5b50336000806101000a81548173ffffffffffffffffffffffffffffffffffffffff021916908373ffffffffffffffffffffffffffffffffffffffff1602179055506000600181905550612165806100686000396000f3fe60806040526004361061007f5760003560e01c80638642269e1161004e5780638642269e146101595780638af0657d146101755780638da5cb5b1461019e578063b9db15b4146101c957610086565b80630a67da4f1461008857806315fb5fbb146100c55780633267721c146100ee5780637acc0b201461011757610086565b3661008657005b005b34801561009457600080fd5b506100af60048036038101906100aa9190611539565b61020b565b6040516100bc91906115a4565b60405180910390f35b3480156100d157600080fd5b506100ec60048036038101906100e791906115bf565b610407565b005b3480156100fa57600080fd5b5061011560048036038101906101109190611539565b6107ec565b005b34801561012357600080fd5b5061013e600480360381019061013991906115bf565b61099f565b604051610150969594939291906116f1565b60405180910390f35b610173600480360381019061016e91906115bf565b610ab0565b005b34801561018157600080fd5b5061019c600480360381019061019791906115bf565b610dc7565b005b3480156101aa57600080fd5b506101b36110c4565b6040516101c09190611759565b60405180910390f35b3480156101d557600080fd5b506101f060048036038101906101eb91906115bf565b6110e8565b60405161020296959493929190611774565b60405180910390f35b600080831161024f576040517f08c379a000000000000000000000000000000000000000000000000000000000815260040161024690611828565b60405180910390fd5b6001600081548092919061026290611877565b9190505550600060015490506040518060c001604052808281526020013373ffffffffffffffffffffffffffffffffffffffff168152602001600073ffffffffffffffffffffffffffffffffffffffff16815260200160001515815260200185815260200184815250600260008381526020019081526020016000206000820151816000015560208201518160010160006101000a81548173ffffffffffffffffffffffffffffffffffffffff021916908373ffffffffffffffffffffffffffffffffffffffff16021790555060408201518160020160006101000a81548173ffffffffffffffffffffffffffffffffffffffff021916908373ffffffffffffffffffffffffffffffffffffffff16021790555060608201518160020160146101000a81548160ff0219169083151502179055506080820151816003015560a08201518160040190805190602001906103bc929190611306565b509050507fe3eadbb16158d377143f373cc59b6e3e5aabe9ed12b586d2a0b5baae692c8851813386866040516103f594939291906118bf565b60405180910390a18091505092915050565b60015481111580156104195750600081115b610458576040517f08c379a000000000000000000000000000000000000000000000000000000000815260040161044f90611957565b60405180910390fd5b6000600260008381526020019081526020016000209050600073ffffffffffffffffffffffffffffffffffffffff168160010160009054906101000a900473ffffffffffffffffffffffffffffffffffffffff1673ffffffffffffffffffffffffffffffffffffffff1603610502576040517f08c379a00000000000000000000000000000000000000000000000000000000081526004016104f9906119c3565b60405180910390fd5b600073ffffffffffffffffffffffffffffffffffffffff168160020160009054906101000a900473ffffffffffffffffffffffffffffffffffffffff1673ffffffffffffffffffffffffffffffffffffffff1603610595576040517f08c379a000000000000000000000000000000000000000000000000000000000815260040161058c90611a2f565b60405180910390fd5b8060020160149054906101000a900460ff16156105e7576040517f08c379a00000000000000000000000000000000000000000000000000000000081526004016105de90611a9b565b60405180910390fd5b806003015447101561062e576040517f08c379a000000000000000000000000000000000000000000000000000000000815260040161062590611b07565b60405180910390fd5b60018160020160146101000a81548160ff02191690831515021790555060008160010160009054906101000a900473ffffffffffffffffffffffffffffffffffffffff1673ffffffffffffffffffffffffffffffffffffffff16826003015460405161069990611b58565b60006040518083038185875af1925050503d80600081146106d6576040519150601f19603f3d011682016040523d82523d6000602084013e6106db565b606091505b505090508061071f576040517f08c379a000000000000000000000000000000000000000000000000000000000815260040161071690611bb9565b60405180910390fd5b7fe0d605e351806c0da2670999e1bf8d5f67756681343b80cdb952f3b56c3e79c3836001604051610751929190611bd9565b60405180910390a17f896388024e2c63c5d47d0c6e2b2f4229fece8e7bec8fcc48c287275531c1c1f9838360020160009054906101000a900473ffffffffffffffffffffffffffffffffffffffff168460010160009054906101000a900473ffffffffffffffffffffffffffffffffffffffff168560030154866004016040516107df959493929190611d56565b60405180910390a1505050565b60008054906101000a900473ffffffffffffffffffffffffffffffffffffffff1673ffffffffffffffffffffffffffffffffffffffff163373ffffffffffffffffffffffffffffffffffffffff161461087a576040517f08c379a000000000000000000000000000000000000000000000000000000000815260040161087190611e22565b60405180910390fd5b600154821115801561088c5750600082115b6108cb576040517f08c379a00000000000000000000000000000000000000000000000000000000081526004016108c290611957565b60405180910390fd5b60006002600084815260200190815260200160002090508180519060200120816004016040516108fb9190611ed6565b604051809103902014610943576040517f08c379a000000000000000000000000000000000000000000000000000000000815260040161093a90611f39565b60405180910390fd5b60018160020160146101000a81548160ff0219169083151502179055507fe0d605e351806c0da2670999e1bf8d5f67756681343b80cdb952f3b56c3e79c3836001604051610992929190611bd9565b60405180910390a1505050565b60026020528060005260406000206000915090508060000154908060010160009054906101000a900473ffffffffffffffffffffffffffffffffffffffff16908060020160009054906101000a900473ffffffffffffffffffffffffffffffffffffffff16908060020160149054906101000a900460ff1690806003015490806004018054610a2d90611c90565b80601f0160208091040260200160405190810160405280929190818152602001828054610a5990611c90565b8015610aa65780601f10610a7b57610100808354040283529160200191610aa6565b820191906000526020600020905b815481529060010190602001808311610a8957829003601f168201915b5050505050905086565b6001548111158015610ac25750600081115b610b01576040517f08c379a0000000000000000000000000000000000000000000000000000000008152600401610af890611957565b60405180910390fd5b6000600260008381526020019081526020016000209050600073ffffffffffffffffffffffffffffffffffffffff168160010160009054906101000a900473ffffffffffffffffffffffffffffffffffffffff1673ffffffffffffffffffffffffffffffffffffffff1603610bab576040517f08c379a0000000000000000000000000000000000000000000000000000000008152600401610ba2906119c3565b60405180910390fd5b80600301543414610bf1576040517f08c379a0000000000000000000000000000000000000000000000000000000008152600401610be890611fa5565b60405180910390fd5b600073ffffffffffffffffffffffffffffffffffffffff168160020160009054906101000a900473ffffffffffffffffffffffffffffffffffffffff1673ffffffffffffffffffffffffffffffffffffffff1614610c84576040517f08c379a0000000000000000000000000000000000000000000000000000000008152600401610c7b90612011565b60405180910390fd5b8060010160009054906101000a900473ffffffffffffffffffffffffffffffffffffffff1673ffffffffffffffffffffffffffffffffffffffff163373ffffffffffffffffffffffffffffffffffffffff1603610d16576040517f08c379a0000000000000000000000000000000000000000000000000000000008152600401610d0d906120a3565b60405180910390fd5b338160020160006101000a81548173ffffffffffffffffffffffffffffffffffffffff021916908373ffffffffffffffffffffffffffffffffffffffff1602179055507f896388024e2c63c5d47d0c6e2b2f4229fece8e7bec8fcc48c287275531c1c1f982338360010160009054906101000a900473ffffffffffffffffffffffffffffffffffffffff16846003015485600401604051610dbb959493929190611d56565b60405180910390a15050565b6001548111158015610dd95750600081115b610e18576040517f08c379a0000000000000000000000000000000000000000000000000000000008152600401610e0f90611957565b60405180910390fd5b6000600260008381526020019081526020016000209050600073ffffffffffffffffffffffffffffffffffffffff168160010160009054906101000a900473ffffffffffffffffffffffffffffffffffffffff1673ffffffffffffffffffffffffffffffffffffffff1603610ec2576040517f08c379a0000000000000000000000000000000000000000000000000000000008152600401610eb9906119c3565b60405180910390fd5b8060020160149054906101000a900460ff1615610f14576040517f08c379a0000000000000000000000000000000000000000000000000000000008152600401610f0b90611a9b565b60405180910390fd5b600073ffffffffffffffffffffffffffffffffffffffff168160020160009054906101000a900473ffffffffffffffffffffffffffffffffffffffff1673ffffffffffffffffffffffffffffffffffffffff16146110865760008160020160009054906101000a900473ffffffffffffffffffffffffffffffffffffffff1673ffffffffffffffffffffffffffffffffffffffff168260030154604051610fba90611b58565b60006040518083038185875af1925050503d8060008114610ff7576040519150601f19603f3d011682016040523d82523d6000602084013e610ffc565b606091505b5050905080611040576040517f08c379a00000000000000000000000000000000000000000000000000000000081526004016110379061210f565b60405180910390fd5b60008260020160006101000a81548173ffffffffffffffffffffffffffffffffffffffff021916908373ffffffffffffffffffffffffffffffffffffffff160217905550505b7fe0d605e351806c0da2670999e1bf8d5f67756681343b80cdb952f3b56c3e79c38260006040516110b8929190611bd9565b60405180910390a15050565b60008054906101000a900473ffffffffffffffffffffffffffffffffffffffff1681565b6000806000806000606060015487111580156111045750600087115b611143576040517f08c379a000000000000000000000000000000000000000000000000000000000815260040161113a90611957565b60405180910390fd5b6000600260008981526020019081526020016000206040518060c0016040529081600082015481526020016001820160009054906101000a900473ffffffffffffffffffffffffffffffffffffffff1673ffffffffffffffffffffffffffffffffffffffff1673ffffffffffffffffffffffffffffffffffffffff1681526020016002820160009054906101000a900473ffffffffffffffffffffffffffffffffffffffff1673ffffffffffffffffffffffffffffffffffffffff1673ffffffffffffffffffffffffffffffffffffffff1681526020016002820160149054906101000a900460ff161515151581526020016003820154815260200160048201805461124e90611c90565b80601f016020809104026020016040519081016040528092919081815260200182805461127a90611c90565b80156112c75780601f1061129c576101008083540402835291602001916112c7565b820191906000526020600020905b8154815290600101906020018083116112aa57829003601f168201915b5050505050815250509050806000015181602001518260400151836060015184608001518560a001519650965096509650965096505091939550919395565b82805461131290611c90565b90600052602060002090601f016020900481019282611334576000855561137b565b82601f1061134d57805160ff191683800117855561137b565b8280016001018555821561137b579182015b8281111561137a57825182559160200191906001019061135f565b5b509050611388919061138c565b5090565b5b808211156113a557600081600090555060010161138d565b5090565b6000604051905090565b600080fd5b600080fd5b6000819050919050565b6113d0816113bd565b81146113db57600080fd5b50565b6000813590506113ed816113c7565b92915050565b600080fd5b600080fd5b6000601f19601f8301169050919050565b7f4e487b7100000000000000000000000000000000000000000000000000000000600052604160045260246000fd5b611446826113fd565b810181811067ffffffffffffffff821117156114655761146461140e565b5b80604052505050565b60006114786113a9565b9050611484828261143d565b919050565b600067ffffffffffffffff8211156114a4576114a361140e565b5b6114ad826113fd565b9050602081019050919050565b82818337600083830152505050565b60006114dc6114d784611489565b61146e565b9050828152602081018484840111156114f8576114f76113f8565b5b6115038482856114ba565b509392505050565b600082601f8301126115205761151f6113f3565b5b81356115308482602086016114c9565b91505092915050565b600080604083850312156115505761154f6113b3565b5b600061155e858286016113de565b925050602083013567ffffffffffffffff81111561157f5761157e6113b8565b5b61158b8582860161150b565b9150509250929050565b61159e816113bd565b82525050565b60006020820190506115b96000830184611595565b92915050565b6000602082840312156115d5576115d46113b3565b5b60006115e3848285016113de565b91505092915050565b600073ffffffffffffffffffffffffffffffffffffffff82169050919050565b6000611617826115ec565b9050919050565b6116278161160c565b82525050565b6000611638826115ec565b9050919050565b6116488161162d565b82525050565b60008115159050919050565b6116638161164e565b82525050565b600081519050919050565b600082825260208201905092915050565b60005b838110156116a3578082015181840152602081019050611688565b838111156116b2576000848401525b50505050565b60006116c382611669565b6116cd8185611674565b93506116dd818560208601611685565b6116e6816113fd565b840191505092915050565b600060c0820190506117066000830189611595565b611713602083018861161e565b611720604083018761163f565b61172d606083018661165a565b61173a6080830185611595565b81810360a083015261174c81846116b8565b9050979650505050505050565b600060208201905061176e600083018461163f565b92915050565b600060c0820190506117896000830189611595565b611796602083018861163f565b6117a3604083018761163f565b6117b0606083018661165a565b6117bd6080830185611595565b81810360a08301526117cf81846116b8565b9050979650505050505050565b7f5072696365206d7573742062652067726561746572207468616e203000000000600082015250565b6000611812601c83611674565b915061181d826117dc565b602082019050919050565b6000602082019050818103600083015261184181611805565b9050919050565b7f4e487b7100000000000000000000000000000000000000000000000000000000600052601160045260246000fd5b6000611882826113bd565b91507fffffffffffffffffffffffffffffffffffffffffffffffffffffffffffffffff82036118b4576118b3611848565b5b600182019050919050565b60006080820190506118d46000830187611595565b6118e1602083018661163f565b6118ee6040830185611595565b818103606083015261190081846116b8565b905095945050505050565b7f496e76616c69642070726f647563742049440000000000000000000000000000600082015250565b6000611941601283611674565b915061194c8261190b565b602082019050919050565b6000602082019050818103600083015261197081611934565b9050919050565b7f50726f6475637420646f6573206e6f7420657869737400000000000000000000600082015250565b60006119ad601683611674565b91506119b882611977565b602082019050919050565b600060208201905081810360008301526119dc816119a0565b9050919050565b7f4e6f20627579657220666f7220746869732070726f6475637400000000000000600082015250565b6000611a19601983611674565b9150611a24826119e3565b602082019050919050565b60006020820190508181036000830152611a4881611a0c565b9050919050565b7f50726f6475637420616c72656164792076657269666965640000000000000000600082015250565b6000611a85601883611674565b9150611a9082611a4f565b602082019050919050565b60006020820190508181036000830152611ab481611a78565b9050919050565b7f496e73756666696369656e7420636f6e74726163742062616c616e6365000000600082015250565b6000611af1601d83611674565b9150611afc82611abb565b602082019050919050565b60006020820190508181036000830152611b2081611ae4565b9050919050565b600081905092915050565b50565b6000611b42600083611b27565b9150611b4d82611b32565b600082019050919050565b6000611b6382611b35565b9150819050919050565b7f5472616e73666572206661696c65640000000000000000000000000000000000600082015250565b6000611ba3600f83611674565b9150611bae82611b6d565b602082019050919050565b60006020820190508181036000830152611bd281611b96565b9050919050565b6000604082019050611bee6000830185611595565b611bfb602083018461165a565b9392505050565b6000819050919050565b6000611c27611c22611c1d846115ec565b611c02565b6115ec565b9050919050565b6000611c3982611c0c565b9050919050565b6000611c4b82611c2e565b9050919050565b611c5b81611c40565b82525050565b7f4e487b7100000000000000000000000000000000000000000000000000000000600052602260045260246000fd5b60006002820490506001821680611ca857607f821691505b602082108103611cbb57611cba611c61565b5b50919050565b60008190508160005260206000209050919050565b60008154611ce381611c90565b611ced8186611674565b94506001821660008114611d085760018114611d1a57611d4d565b60ff1983168652602086019350611d4d565b611d2385611cc1565b60005b83811015611d4557815481890152600182019150602081019050611d26565b808801955050505b50505092915050565b600060a082019050611d6b6000830188611595565b611d78602083018761163f565b611d856040830186611c52565b611d926060830185611595565b8181036080830152611da48184611cd6565b90509695505050505050565b7f4f6e6c79206f776e65722063616e2063616c6c20746869732066756e6374696f60008201527f6e00000000000000000000000000000000000000000000000000000000000000602082015250565b6000611e0c602183611674565b9150611e1782611db0565b604082019050919050565b60006020820190508181036000830152611e3b81611dff565b9050919050565b60008190508160005260206000209050919050565b60008154611e6481611c90565b611e6e8186611b27565b94506001821660008114611e895760018114611e9a57611ecd565b60ff19831686528186019350611ecd565b611ea385611e42565b60005b83811015611ec557815481890152600182019150602081019050611ea6565b838801955050505b50505092915050565b6000611ee28284611e57565b915081905092915050565b7f496d6167652068617368206d69736d6174636800000000000000000000000000600082015250565b6000611f23601383611674565b9150611f2e82611eed565b602082019050919050565b60006020820190508181036000830152611f5281611f16565b9050919050565b7f496e636f727265637420457468657220616d6f756e7400000000000000000000600082015250565b6000611f8f601683611674565b9150611f9a82611f59565b602082019050919050565b60006020820190508181036000830152611fbe81611f82565b9050919050565b7f50726f6475637420616c726561647920736f6c64000000000000000000000000600082015250565b6000611ffb601483611674565b915061200682611fc5565b602082019050919050565b6000602082019050818103600083015261202a81611fee565b9050919050565b7f53656c6c65722063616e6e6f7420627579207468656972206f776e2070726f6460008201527f7563740000000000000000000000000000000000000000000000000000000000602082015250565b600061208d602383611674565b915061209882612031565b604082019050919050565b600060208201905081810360008301526120bc81612080565b9050919050565b7f526566756e64206661696c656400000000000000000000000000000000000000600082015250565b60006120f9600d83611674565b9150612104826120c3565b602082019050919050565b60006020820190508181036000830152612128816120ec565b905091905056fea2646970667358221220eb08dc69f7ec658371a85b34de0f46a19d5be2c780cc097a47f0373f1b49e94d64736f6c634300080d0033",
  "immutableReferences": {},
  "source": "// SPDX-License-Identifier: MIT\r\npragma solidity ^0.8.13;\r\n\r\ncontract ProductAuth {\r\n    address public owner;\r\n    uint256 private productCounter;\r\n\r\n    // Product structure\r\n    struct Product {\r\n        uint productId;\r\n        address payable seller;\r\n        address buyer;\r\n        bool isVerified;\r\n        uint price;\r\n        string imageHash;\r\n    }\r\n\r\n    // Mapping from product ID to product information\r\n    mapping(uint => Product) public products;\r\n\r\n    // Events\r\n    event ProductVerified(uint productId, bool isReal);\r\n    event ProductPurchased(\r\n        uint productId,\r\n        address buyer,\r\n        address seller,\r\n        uint price,\r\n        string imageHash // Add imageHash to the event\r\n    );\r\n\r\n    // Constructor\r\n    constructor() {\r\n        owner = msg.sender;\r\n        productCounter = 0;\r\n    }\r\n\r\n    // Modifiers\r\n    modifier onlyOwner() {\r\n        require(msg.sender == owner, \"Only owner can call this function\");\r\n        _;\r\n    }\r\n\r\n    // Functions to handle incoming ETH\r\n    receive() external payable {}\r\n    fallback() external payable {}\r\n\r\n    event ProductCreated(\r\n        uint productId,\r\n        address seller,\r\n        uint price,\r\n        string imageHash\r\n    );\r\n\r\n    function setProduct(\r\n        uint _price,\r\n        string memory _imageHash\r\n    ) public returns (uint) {\r\n        require(_price > 0, \"Price must be greater than 0\");\r\n\r\n        productCounter++;\r\n        uint newProductId = productCounter;\r\n\r\n        products[newProductId] = Product({\r\n            productId: newProductId,\r\n            seller: payable(msg.sender),\r\n            buyer: address(0),\r\n            isVerified: false,\r\n            price: _price,\r\n            imageHash: _imageHash\r\n        });\r\n\r\n        emit ProductCreated(newProductId, msg.sender, _price, _imageHash);\r\n\r\n        return newProductId;\r\n    }\r\n\r\n    function buyProduct(uint _productId) public payable {\r\n        require(\r\n            _productId <= productCounter && _productId > 0,\r\n            \"Invalid product ID\"\r\n        );\r\n        Product storage product = products[_productId];\r\n        require(product.seller != address(0), \"Product does not exist\");\r\n        require(msg.value == product.price, \"Incorrect Ether amount\");\r\n        require(product.buyer == address(0), \"Product already sold\");\r\n        require(\r\n            msg.sender != product.seller,\r\n            \"Seller cannot buy their own product\"\r\n        );\r\n\r\n        product.buyer = msg.sender;\r\n\r\n        // Emit event with imageHash included\r\n        emit ProductPurchased(\r\n            _productId,\r\n            msg.sender,\r\n            product.seller,\r\n            product.price,\r\n            product.imageHash\r\n        );\r\n    }\r\n\r\n    function verifyProduct(\r\n        uint _productId,\r\n        string memory _imageHash\r\n    ) public onlyOwner {\r\n        require(\r\n            _productId <= productCounter && _productId > 0,\r\n            \"Invalid product ID\"\r\n        );\r\n        Product storage product = products[_productId];\r\n        require(\r\n            keccak256(bytes(product.imageHash)) == keccak256(bytes(_imageHash)),\r\n            \"Image hash mismatch\"\r\n        );\r\n\r\n        // Your AI verification logic would go here\r\n        product.isVerified = true;\r\n        emit ProductVerified(_productId, true);\r\n    }\r\n\r\n    function realProduct(uint _productId) public {\r\n        require(\r\n            _productId <= productCounter && _productId > 0,\r\n            \"Invalid product ID\"\r\n        );\r\n        Product storage product = products[_productId];\r\n        require(product.seller != address(0), \"Product does not exist\");\r\n        require(product.buyer != address(0), \"No buyer for this product\");\r\n        require(!product.isVerified, \"Product already verified\");\r\n        require(\r\n            address(this).balance >= product.price,\r\n            \"Insufficient contract balance\"\r\n        );\r\n\r\n        product.isVerified = true;\r\n\r\n        (bool success, ) = product.seller.call{value: product.price}(\"\");\r\n        require(success, \"Transfer failed\");\r\n\r\n        emit ProductVerified(_productId, true);\r\n        emit ProductPurchased(\r\n            _productId,\r\n            product.buyer,\r\n            product.seller,\r\n            product.price,\r\n            product.imageHash\r\n        );\r\n    }\r\n\r\n    function fakeProduct(uint _productId) public {\r\n        require(\r\n            _productId <= productCounter && _productId > 0,\r\n            \"Invalid product ID\"\r\n        );\r\n        Product storage product = products[_productId];\r\n        require(product.seller != address(0), \"Product does not exist\");\r\n        require(!product.isVerified, \"Product already verified\");\r\n\r\n        if (product.buyer != address(0)) {\r\n            (bool success, ) = payable(product.buyer).call{\r\n                value: product.price\r\n            }(\"\");\r\n            require(success, \"Refund failed\");\r\n            product.buyer = address(0);\r\n        }\r\n\r\n        emit ProductVerified(_productId, false);\r\n    }\r\n\r\n    function getProduct(\r\n        uint _productId\r\n    ) public view returns (uint, address, address, bool, uint, string memory) {\r\n        require(\r\n            _productId <= productCounter && _productId > 0,\r\n            \"Invalid product ID\"\r\n        );\r\n        Product memory product = products[_productId];\r\n        return (\r\n            product.productId,\r\n            product.seller,\r\n            product.buyer,\r\n            product.isVerified,\r\n            product.price,\r\n            product.imageHash\r\n        );\r\n    }\r\n}\r\n",
  "sourcePath": "C:\\Users\\phama\\Downloads\\Vaida_aimfall2024\\Smart Contract\\contracts\\ProductAuth.sol",
  "compiler": {
    "name": "solc",
    "version": "0.8.13+commit.abaa5c0e.Emscripten.clang"
  },
  "schemaVersion": "3.4.16",
  "updatedAt": "2024-12-05T01:11:09.178Z",
  "networkType": "ethereum",
  "devdoc": {
    "kind": "dev",
    "methods": {},
    "version": 1
  },
  "userdoc": {
    "kind": "user",
    "methods": {},
    "version": 1
  }
}